:020000001628C0
:0E000600831203132B088A002A0882000800C8
:1000140003208A110A128000840AAA0A0319AB0A6F
:08002400F003031D0A28080087
:10002C003F3083120313A0000630A1005B30A20006
:10003C004F30A3006630A4006D30A5007D30A600C3
:10004C000730A7007F30A8006F30A900AC01AD01CC
:10005C0083168601FF308800831286010818522807
:10006C000330FB000830FC007730FD00FD0B3C2812
:10007C00FC0B3C28FB0B3C280818522880302D0622
:10008C00F00080307002031D4D2809302C0203183B
:10009C005228AC0A0319AD0A881871280330FB00EA
:1000AC000830FC007730FD00FD0B5A28FC0B5A2859
:1000BC00FB0B5A288818712880302D06F0008030F0
:1000CC007002031D6B2801302C02031C71280130B7
:1000DC00AC02031CAD032C08203E840000088600F3
:0400EC003428772815
:02400E004A2F37
:00000001FF
