:020000001628C0
:0E0006008312031335088A00340882000800B4
:1000140003208A110A128000840AB40A0319B50A5B
:08002400F003031D0A28080087
:10002C00C03083120313A000F930A100A430A20049
:10003C00B030A3009930A4009230A5008230A60005
:10004C00F830A7008030A8009030A9003F30AA00FB
:10005C000630AB005B30AC004F30AD006630AE000C
:10006C006D30AF007D30B0000730B1007F30B20092
:10007C006F30B300B601B701831688018601831275
:10008C00B601B7018030F000803037067002031DD6
:10009C0051283608093C031C6F283608203E840082
:1000AC000008880036082A3E8400000886000B30C1
:1000BC00FB002630FC005D30FD00FD0B6328FC0BC3
:1000CC006328FB0B632800000000B60A0319B70A6B
:0400DC0048286F2819
:02400E004A2F37
:00000001FF
