:02000000AB282B
:10000600710DF80DF90D7408F8027508031C750FCB
:10001600F902F00DF10D0F30FC00710DF80DF90D20
:100026007408701C1C28F8027508031C750FF90269
:100036002128F80775080318750FF907F00DF10D5B
:10004600FC0B102870182D287408F807750803187B
:08005600750FF9070000080016
:0E005E00831203132B088A002A088200080070
:10006C002F208A110A128000840AAA0A0319AB0AEB
:08007C00F003031D3628080003
:10008400831203137408003A031D51287508003ABB
:10009400031D5128FF30F0007F30F100AA2883129D
:1000A4000313FD01F901F801710870040319003408
:1000B40071087506FA00FA1BFD09FB01F51F672894
:1000C400F409F509F40A0319F50AF11F6E28F00979
:1000D400F109F00A0319F10A71087504FA00FA1B10
:1000E400832803207B189628FD1F0034F009F109AA
:1000F400F00A0319F10AF809F909F80A0319F90AC7
:100104000034F51F9228F11B8E287108F90070083D
:10011400F800F101F0017628F101F001F00A003451
:10012400F109F009FB0A7328F80A0319F90A74089B
:100134007802031D762875087902031D7628F901D3
:10014400F801F00A0319F10AF11F76280000FF34C0
:020154000800A1
:10015600C03083120313A000F930A100A430A2001E
:10016600B030A3009930A4009230A5008230A600DA
:10017600F830A7008030A8009030A900AE01AF018A
:10018600831686018801831286018801FF30831653
:1001960087000A30F4000030F50083122E08F000C4
:1001A6002F08F10042207008B0007108B1000A3033
:1001B600F4000030F5002E08F0002F08F100422070
:1001C6007808F0007908F1007008AC007108AD00FD
:1001D60008143008203E8400000886000D30FC001C
:1001E600FB30FD00FD0BF528FC0BF5280000000098
:1001F600081088142C08203E8400000886000D3064
:10020600FC00FB30FD00FD0B0629FC0B0629000057
:10021600000088100718372980302F06F00080303C
:100226007002031D182963302E0203183729023085
:10023600FB000430FC00BA30FD00FD0B2029FC0B4E
:100246002029FB0B202900000718372980302F06AC
:10025600F00080307002031D322963302E0203182D
:100266003729AE0A0319AF0A871862298030F000D1
:1002760080302F067002031D42292E08003C031809
:1002860062290230FB000430FC00BA30FD00FD0B91
:100296004A29FC0B4A29FB0B4A29000087186229C8
:1002A6008030F00080302F067002031D5C292E0876
:1002B600003C031862290130AE02031CAF03CC28B0
:0202C6006329AA
:02400E004A2F37
:00000001FF
