:020000000329D2
:0E000600213083120313FD00FD0B07280800B4
:100014000F3083120313FC004730FD00FD0B102842
:0A002400FC0B10280000000008008B
:06002E00000000000800C4
:1000340083120313B91B2028861221288616391B24
:100044002528061226280616B91A2A2886112B28CE
:100054008615391A2F280611302806153018342829
:10006400061435280610861417208610B9193C2862
:1000740086123D288616391941280612422806168A
:10008400B918462886114728861539184B280611B1
:100094004C280615301850280614512806108614CA
:1000A40017208610301C58280A20592803200800DD
:0E00B4008312031332088A003108820008000C
:1000C2008312031330103808B9001A2030140800C4
:1000D2008316031386100610061186110612861265
:1000E20083128610061086120612861106110A2045
:1000F2000A200A20861506158614172086100A2063
:100102008614172086100A208614172086100A20CB
:1001120006118614172086100A20861417208610CE
:10012200861186168614172086100A208612061556
:1001320086141720861006118614172086100A20AE
:1001420086141720861006158614172086100A209A
:1001520006118614172086108616061686150615B1
:0C0162008614172086100A2030140800B4
:10016E00C928803083120313B400DC28C030B400D9
:10017E00DC289430B400DC28D430B400DC28803085
:10018E00B400DC28831203133408013A0319B8288B
:10019E003408023A0319BD283408033A0319C0285B
:1001AE003408043A0319C328C6283503F00034086E
:1001BE00F0077008B4007008B9001A203010B701AB
:1001CE0037083607840000080319F5283708360764
:1001DE0084000008B8006120B70AE7283014080030
:1001EE005A208A110A128000840AB10A0319B20A2F
:0801FE00F003031DF7280800BF
:10020600413083120313A0006830A1007330A200AE
:100216006130A3006E30A4002030A5004130A60056
:100226006C30A7002030A8004230A9006130AA0037
:100236007330AB006830AC006130AD007230AE0098
:10024600AF01B301063083169F0007309C0069207A
:100256000130B9001A200C30B9001A200130B40060
:100266000130B5002030B600B720B30104303302A8
:10027600031850291830B9001A200630FB00133035
:10028600FC00AD30FD00FD0B4629FC0B4629FB0B9F
:0E029600462900000000B30A392938295129F1
:02400E004A2F37
:00000001FF
