:020000000328D3
:1000060083160313860183128601F101F201803003
:100016007206F00080307002031D13283230710220
:1000260003182E2806140330FC001230FD00FD0BC9
:100036001A28FC0B1A28000006103230FC00DD30AE
:10004600FD00FD0B2428FC0B242800000000F10A0B
:100056000319F20A0A281530FB004B30FC00BE30AB
:10006600FD00FD0B3428FC0B3428FB0B3428000064
:10007600F101F20180307206F00080307002031D3B
:100086004628323071020318612806140430FC0039
:10009600E430FD00FD0B4D28FC0B4D28000006103A
:1000A6003130FC000B30FD00FD0B5728FC0B5728A8
:1000B60000000000F10A0319F20A3D281530FB0082
:1000C6004B30FC00BE30FD00FD0B6728FC0B67289B
:1000D600FB0B67280000F101F20180307206F00088
:1000E60080307002031D792832307102031894287B
:1000F60006140630FC00B530FD00FD0B8028FC0B15
:1001060080280000000006102F30FC003A30FD0069
:10011600FD0B8B28FC0B8B280000F10A0319F20A51
:1001260070281530FB004B30FC00BE30FD00FD0B87
:100136009A28FC0B9A28FB0B9A2800000828A2286C
:02400E004A2F37
:00000001FF
