:02000000822D4F
:06000600000000000800EC
:0E000C00213083120313FD00FD0B0A280800AB
:10001A000F3083120313FC004730FD00FD0B132839
:0A002A00FC0B132800000000080082
:10003400FB14FB1F2428FF30F300F200F100F00052
:08004400FA0DF20CFF30080078
:0E004C00F201F101F001F801F30100300800AB
:10005A007B15FB1F37280130F300F201F101F00193
:08006A00FA0DF20CFF30080052
:08007200FA1FF2130030080030
:10007A0083120313D91B4328861244288616591B58
:10008A004828061249280616D91A4D2886114E28DC
:10009A008615591A52280611532806154318572847
:1000AA00061458280610861403208610D9195F28CA
:1000BA0086126028861659196428061265280616BB
:1000CA00D918692886116A28861559186E280611C2
:1000DA006F28061543187328061474280610861408
:1000EA0003208610431C7B280D207C28062008004C
:1000FA00A0017208031D92287108F2007008F1002D
:10010A00F001A0157208031D92287108F200F1018E
:10011A00A011201672080319A0282008F302031D53
:10012A00031CA4280310F21BA828F00DF10DF20DF0
:10013A00F30B9828A4280130FC002620AB280230B3
:0E014A00FC002D20AB280430FC0039200800FA
:100158000E3083120313FD00FD0BB02800000800C9
:0E0168008312031345088A0044088200080031
:06017600FB15FF3008003C
:10017C00831203135708F2007208F100F20A5808B0
:10018C00F000D80A700884000008F00071088400A0
:10019C00700880007108840000080319D628C22852
:0601AC005708F0000800F6
:1001B20083120313FA017308031D7A147708031DCF
:1001C200FA147A0803192529033A0319F0287A1830
:1001D200ED28F61F23292129F21F2129232972083C
:1001E2008039FA00F21376088039F6137A06031979
:1001F200FE287A0803192129232977087302031993
:100202000529031C19291D297608720203190C29D4
:10021200031C19291D297508710203191329031CCE
:1002220019291D29740870020319252903181D298B
:10023200FA08031923292129FA0803192129232954
:100242000314080003100800031403150800080033
:1002520083120313FB017308031D77080319802916
:1002620072087606FA007708F3077E30031C3D29F0
:10027200F302031883294029F302031C862972081A
:10028200F8007108FC007008FD00F817F61703105B
:10029200F201F101F0011830A0007D1C5A29740806
:1002A200F00775080318750FF10776080318760F23
:1002B200F207F20CF10CF00CF80CFC0CFD0C031024
:1002C200A00B4E29F21B6A29F80DF00DF10DF20D6B
:1002D200F3037B1B701C7C29F81F7C29F00A03198D
:1002E200F10A0319F20A031D7C29F20CF10CF00C3D
:1002F200F30A03198329FA1FF21300308829013007
:100302002620882902301A20882904302D20000056
:020312000800E1
:1003140083120313FD01F8017008031900347406F5
:10032400FA00FA1BFD09FB01F41F9A29F409F40AE7
:10033400F01F9E29F009F00A70087404FA00FA1BF1
:10034400C2297408F802F00D700DF80D7408F8074E
:10035400F00D0630FC00700DF80D74087018F802EA
:10036400701CF807F00DFC0BAD29701CF8077B1806
:10037400D029FD1F0034F009F00AF809F80A003406
:10038400F41FCD29F01BCA297008F800F001BB291D
:10039400F001F00A0034F009FB0AA329F80A7408F2
:1003A4007802031DBB29F801F00AF01FBB29FF34B2
:0203B40008003F
:1003B6008312031343105708D9003D204314080045
:1003C600F529803083120313CA00082AC030CA00F8
:1003D600082A9430CA00082AD430CA00082A803075
:1003E600CA00082A831203134A08013A0319E429AA
:1003F6004A08023A0319E9294A08033A0319EC297B
:100406004A08043A0319EF29F2294B03F0004A0877
:10041600F0077008CA007008D9003D204310CD01CE
:100426004D084C07840000080319212A4D084C0783
:1004360084000008D700DB21CD0A132A43140800E4
:10044600831203137408003A031D3E2A7508003A06
:10045600031D3E2A7608003A031D3E2A7708003A15
:10046600031D3E2AFF30F000FF30F1007F30F2001E
:10047600FF30F300D92A8312031377080319CD2A14
:1004860073080319D02A720876068039FA00F21723
:10049600F617A0017208F8007108FC007008FD004C
:1004A6007408FD027508031C750FFC027608031C10
:1004B600760FF802F801FC01FD01031C692A0310FE
:1004C600F20CF10CF00CF80C0130A0007708F302E6
:1004D600031C732A7E302007F3070318D32A782AD1
:1004E6007E302007F307031CD62A1830FA07FD0DC5
:1004F600FC0DF80DF00DF10DF20DA00D7408F002D3
:100506007508031C750FF1027608031C760FF202BC
:10051600760DA004201C912A7D149C2A7408F007ED
:1005260075080318750FF10776080318760AF2079F
:100536007D10FA031F307A05031D7A2A7B1B7D1C6A
:10054600C32A0310F00DF10DF20DA00D7408F00290
:100556007508031C750FF1027608031C760FF2026C
:10056600760D20040139FD070318FC0A0319F80A61
:10057600031DC32AF80CFC0CFD0CF30A0319D32A3D
:10058600FA1FF8137808F2007C08F1007D08F000E5
:100596000030D82A0130BB20D82A02302620D82A9B
:0E05A60004301A20D82A08302D20000008004A
:1005B40083120313D501D6014A08D1004B08D20097
:1005C4004C08D3004D08D4005408FF3A031DF42A04
:1005D4005308FF3A031DF42A5208FF3A031DF42A74
:1005E4005108FF3A031DFE2A4E08D7002330D800D5
:1005F400BE200330F000D72C0130CF00D31F0D2BC9
:1006040080305306F0007008D300CF0A4E088400EF
:100614002D308000CE0A0030F0005406031D1C2B40
:1006240070085306031D1C2B70085206031D1C2B57
:100634005108003A031D252B4E08D7002130D8005D
:10064400BE20F001D72C5408FF3A031D332B530866
:10065400003A031D332B5208003A031D332B510873
:10066400003A031D3D2B4E08D7002730D800BE208A
:100674004F08F000D72C0030F4000030F5000030B3
:10068400F6007F30F7005108F0005208F1005308DB
:10069400F2005408F300D920013003180030F000B0
:1006A40070080319702B5108F0005208F100530828
:1006B400F2005408F3000030F4000030F50020305C
:1006C400F6008230F70029217008D1007108D200A9
:1006D4007208D3007308D400D6033D2B0030F40015
:1006E4000030F5002030F6008230F7005108F000A9
:1006F4005208F1005308F2005408F300D9200130E5
:10070400031C0030F00070080319A32B5108F000FB
:100714005208F1005308F2005408F300CD30F400FD
:10072400CC30F5004C30F6007B30F70029217008FE
:10073400D1007108D2007208D3007308D400D60A1D
:10074400702BFF305105F800FF305205F9007F305F
:100754005305FA0000305405FB007808F4007908CA
:10076400F5007A08F6007B08F700F40DF50DF60D98
:10077400F70D741000305105F00000305205F100FF
:1007840000305305F200FF305405F3007008D10027
:100794007108D2007208D3007308D400740851049D
:1007A400F00075085204F10076085304F20077084B
:1007B4005404F3007008D1007108D2007208D30009
:1007C4007308D4007F305402F0007008D000013068
:1007D400D4007008F4005108F0005208F1005308E6
:1007E400F2005408F30074080319FF2BF00DF10D07
:1007F400F20DF30D7010FF3EF62B7008D100710856
:10080400D2007208D3007308D4005408303EF000BC
:100814004E08840070088000CE0A80305606F0002E
:100824008030013A7002031C202C8030063AF0001C
:10083400803056067002031C202C272C4E0884009E
:100844002E308000CE0A0130D5000630D00050088A
:10085400003A0319852CD4015108F0005208F10024
:100864005308F2005408F300F00DF10DF20DF30DEE
:100874007010F00DF10DF20DF30D70105108F0072A
:1008840052080318520FF10753080318530FF207C5
:1008940054080318540FF3077008D1007108D200EC
:1008A4007208D3007308D4005108F0005208F10014
:1008B4005308F2005408F300F00DF10DF20DF30D9E
:1008C40070107008D1007108D2007208D300730848
:1008D400D4005408303EF0004E08840070088000B4
:1008E400CE0A5508003A031D832CD6035608003A55
:1008F400031D832C4E0884002E308000CE0A013064
:10090400D500D003292CFF304E0784000008303A6C
:10091400031D8E2CCE03852CFF304E078400000867
:100924002E3A031D962CCE035608003A0319D32CF5
:100934004E08840065308000CE0A80305606F000F0
:100944008030003A70020318AF2C4E0884002D301A
:100954008000CE0A5608003CD6005608D0008030ED
:10096400093AF0008030560670020318C52C0A308C
:10097400F4005008F0008A213030F0074E0884005B
:1009840070088000CE0A0A30F4005008F0008A2172
:100994007808F0003030F0074E08840070088000BA
:0C09A400CE0A4E0884008001F00108001B
:1009B000831203137008F8007108F000F101F201CE
:1009C000F301FB01FC019630F300FA017008F1001D
:0C09D0007808F000F801F2017D2008001A
:1009DC00B4208A110A128000840AC40A0319C50AB9
:0809EC00F003031DEE2C0800CE
:1009F400831203139F01C0309F042B09F000700879
:100A040083169F051F179F1783124A08F000F00DE5
:100A14007010F00D7010F00D701070089F041F140A
:100A2400AC201F151F1D182D0000142D1F101E08AB
:100A3400F100F00183161E08F0040030F1040800F0
:100A440083160313861006100611861106128612E9
:100A540083128610061086120612861106110D20C6
:100A64000D200D20861506158614032086100D20F2
:100A74008614032086100D208614032086100D2072
:100A840006118614032086100D2086140320861078
:100A9400861186168614032086100D2086120615EC
:100AA40086140320861006118614032086100D2058
:100AB40086140320861006158614032086100D2044
:100AC400061186140320861086160616861506154A
:0C0AD4008614032086100D204314080037
:100AE00083120313CB014B084A0784000008031943
:100AF000812D4B084A0784000008D700DB21CB0A70
:040B0000732D080049
:100B0400EA25FF3083160313850022250130D9001E
:100B14003D200C30D9003D20CA01FA24D824F630F7
:100B2400F4002830F5001C30F6008130F70029214C
:100B34000030F4000030F5002030F6008230F70079
:100B440023227008C6007108C7007208C800730821
:100B5400C9000130CA000130CB003C30CC00E32195
:100B64004608CA004708CB004808CC004908CD0015
:100B74002C30CE00DA222C30CA0070258E2DC12DE7
:100BD40021308400223083120313F000C730C40094
:080BE4000530C500EE240800F5
:040B8E0030340034CB
:080B92004E3461344E3400348E
:080B9A0049344E3446340034A6
:020BA2000F340E
:100BA40000340034003400340034003400340034A1
:100BB4000034003400340034003400340034003491
:0E0BC400543465346D3470343D3420340034C4
:02400E004A2F37
:00000001FF
